:02000004F90001
:1000000097110000938181CD23A00182732540F1D7
:1000100015C503A5018275DD0F0020020F10000039
:1000200083A7C181014581450146828723AEA18016
:100030000F001001054523A0A18282801701000056
:100040001301415C170500001305453B97050000AF
:100050009385C53A170600001306064A63FAC500E1
:100060008322050023A0550011059105E3EAC5FE92
:10007000170500001305454897050000938585483E
:100080006377B500232005001105E36DB5FEFD2C57
:06009000192001A082808E
:10009600411106C66128B24041018DA2370703E827
:1000A60011071C43C207C183EDDF8567370703E8E5
:1000B600938707801CC38280370703E811071C4318
:1000C600C207C183EDDFB70703E81307002098C313
:1000D600138747001C43C183F5DFB70703E888434E
:1000E6001375F50F8280370703E811071C43C20713
:1000F600C183EDDF13650510B70703E888C3828067
:10010600B7C7B0F8E11794439386860C98433387B4
:10011600E640E35D07FE370703E811079306001084
:100126001C43C207C183E39DD7FE8280B70701E85F
:100136001307800D98C71D47D8C78280B70600F9F8
:10014600370801E871479386863F13064800F15544
:10015600B357E500BD8BB69783C707008328060013
:1001660013D308011373F30FE30A03FE2320F800E9
:100176007117E31FB7FC8280B70601E89387460034
:100186000347050011E38280050590439355060158
:1001960093F5F50FFDD998C2E5B70111370703E8C6
:1001A60022CC06CE2A8411071C43C207C183EDDF89
:1001B600856732C62EC4370703E8938707881CC3B2
:1001C6002D451537135504011375F50F293F0145C4
:1001D600193F0145093F01453937A2453246338467
:1001E600C5002EC4D13DA245AE872380A700850554
:1001F600E39985FE6244F24005614DB5011106CED4
:1002060022CC2D37370500F91305C540B537B7871A
:1002160010E88043B7574D418507630EF400370554
:1002260000F913058544893F2285093F370500F902
:100236001305854621A8B78710E8D8439107058B93
:1002460063160712370500F91305C5463537B70794
:1002560003E823A407003E8789471CD3954654D359
:100266001CD7BA871D47D8D7613D0D3D370703E830
:1002760011071C43C207C183EDDF8567370703E813
:10028600938707881CC31305B00AB13D013D8D3D18
:10029600B7C7B0F8E11794431567130707E2BA9694
:1002A60098433387E640E35D07FE370703E8110707
:1002B6001C43C207C183EDDF8567370703E89387D1
:1002C60007881CC31305F009393DFD33B7C7B0F8DD
:1002D600E11794433D67130707A6BA9698433387F9
:1002E600E640E35D07FE2AC6553B193D3245370712
:1002F60003E811071C43C207C183EDDF85679387B7
:100306000788370703E81CC39307D009631AF50665
:1003160013059002C93B5933E533370500F9130538
:10032600454B993D37060400B705000237056000C6
:10033600AD35370500F91305454C3D3D37060C0034
:10034600B705040237056800893D37050002E13923
:10035600370500F91305454D05356244F24001465F
:1003660081450145B70700020561828723A0070082
:10037600370500F9B78710E8C0471305454965B545
:100386001305900E41BF411122C44AC006C626C2BB
:100396001709000013090906170400001304840551
:1003A600630D8900330989401359294081441C4053
:1003B600850411048297E3EC24FF17090000130952
:1003C6006903170400001304E402630D890033096E
:1003D60089401359294081441C40850411048297A1
:1003E600E3EC24FFB2402244924402494101828058
:1003F8003031323334353637383941424344454653
:10040800000000000D0A0D0A74693337355F6F6FFD
:1004180062206861726420536F43204653424C2C1B
:10042800206275696C742053657020313820323031
:1004380032362031303A30313A31300D0A0000007E
:10044800414D503A206E6F20616D705F6374726C1D
:100458002C204944207265616473203078000000C4
:100468000D0A0000414D503A2046435520616C72F8
:10047800656164792072756E6E696E672C206C6593
:10048800667420616C6F6E650D0A0000414D503A2C
:10049800204643552072656C65617365642C205352
:1004A8005441545553203078000000004F70656E59
:1004B80053424920636F70790D0A0000552D426F31
:1004C8006F7420636F70790D0A00000053746172B5
:1004D80074696E67204F70656E5342490D0A0000BB
:0A04E800000000000000000000000A
:04000005F9000000FE
:00000001FF
