:02000004F90001
:1000000097110000938181CC23A00182732540F1D8
:1000100015C503A5018275DD0F0020020F10000039
:1000200083A7C181014581450146828723AEA18016
:100030000F001001054523A0A18282801701000056
:100040001301415B170500001305C5399705000032
:1000500093854539170600001306064963FAC50063
:100060008322050023A0550011059105E3EAC5FE92
:100070001705000013054547970500009385854740
:100080006377B500232005001105E36DB5FEE52477
:06009000192001A082808E
:10009600411106C66128B24041011DA2370703E897
:1000A60011071C43C207C183EDDF8567370703E8E5
:1000B600938707801CC38280370703E811071C4318
:1000C600C207C183EDDFB70703E81307002098C313
:1000D600138747001C43C183F5DFB70703E888434E
:1000E6001375F50F8280370703E811071C43C20713
:1000F600C183EDDF13650510B70703E888C3828067
:10010600B7C7B0F8E11794439386860C98433387B4
:10011600E640E35D07FE370703E811079306001084
:100126001C43C207C183E39DD7FE8280B70701E85F
:100136001307800D98C71D47D8C78280B70601E808
:10014600938746000347050011E382800505904327
:100156009355060193F5F50FFDD998C2E5B7011140
:10016600370703E822CC06CE2A8411071C43C207B0
:10017600C183EDDF856732C62EC4370703E8938750
:1001860007881CC32D458537135504011375F50FD4
:10019600993F0145893F0145B9370145A937A24530
:1001A60032463384C5002EC4013FA245AE87238064
:1001B600A7008505E39985FE6244F2400561F9BD15
:1001C600011106CE22CC9D37370500F91305053EF1
:1001D600B537B78710E88043B7574D4185076307A2
:1001E600F416370500F91305C541893FB70600F92E
:1001F600370501E871479386464C13064500F155CD
:10020600B357E400BD8BB69783C7070003280600E3
:100216009358080193F8F80FE38A08FE1CC171177A
:10022600E310B7FE370500F91305C543013FB707CD
:1002360003E823A407003E8789471CD3954654D379
:100246001CD7BA871D47D8D7653D893D370703E8D0
:1002560011071C43C207C183EDDF8567370703E833
:10026600938707881CC31305B00AB53D053D493D74
:10027600B7C7B0F8E11794431567130707E2BA96B4
:1002860098433387E640E35D07FE370703E8110727
:100296001C43C207C183EDDF8567370703E89387F1
:1002A60007881CC31305F0093D3D3935B7C7B0F8BB
:1002B600E11794433D67130707A6BA969843338719
:1002C600E640E35D07FE2AC6D13B1D3D32453707B2
:1002D60003E811071C43C207C183EDDF85679387D7
:1002E6000788370703E81CC39307D009631FF50681
:1002F60013059002CD3B5D332135370500F9130513
:1003060005492D3D37060400B70500023705600094
:10031600B935370500F91305054A0D3537060C00C2
:10032600B7050402370568001D3D37050002E539AB
:10033600370500F91305054B11356244F2400146B5
:1003460081450145B707000205618287B78710E836
:10035600DC43858B91C7370500F913050544F9B5CC
:10036600370500F913058546D1B51305900E59B723
:10037600411122C44AC006C626C217090000130945
:1003860009061704000013048405630D8900330968
:1003960089401359294081441C40850411048297E1
:1003A600E3EC24FF17090000130969031704000092
:1003B6001304E402630D8900330989401359294067
:1003C60081441C40850411048297E3EC24FFB2406B
:0A03D6002244924402494101828052
:1003E0000D0A0D0A74693337355F6F6F62206861DB
:1003F000726420536F43204653424C2C206275692F
:100400006C74205365702031382032303236203100
:10041000333A35393A31310D0A000000414D503A36
:10042000206E6F20616D705F6374726C2C20494484
:100430002072656164732030780000000D0A0000AE
:10044000414D503A204643552068656C6420756ED6
:1004500074696C204C696E75782073746172747362
:100460002069740D0A000000414D503A2046435562
:1004700020616C72656164792072756E6E696E6759
:100480002C206C65667420616C6F6E650D0A00002F
:100490004F70656E53424920636F70790D0A0000FA
:1004A000552D426F6F7420636F70790D0A00000044
:1004B0005374617274696E67204F70656E53424960
:1004C0000D0A000030313233343536373839414285
:1004D000434445460000000000000000000000000A
:0204E00000001A
:04000005F9000000FE
:00000001FF
